:100000000C9449000C9471000C9471000C947100D4
:100010000C9471000C9471000C9471000C9471009C
:100020000C9471000C9471000C9471000C9471008C
:100030000C9471000C9471000C9471000C9471007C
:100040000C9413030C9471000C9483030C945D03C3
:100050000C9471000C9471000C9471000C9471005C
:100060000C9471000C94710007634236B79BD8A7BB
:100070001A39685618AEBAAB558C1D3CB7CC5763CD
:10008000BD6DEDFD753EF6177231BF000000803F7B
:100090009C0B11241FBECFEFD8E0DEBFCDBF11E017
:1000A000A0E0B1E0E2EFFFE102C005900D92AA37B7
:1000B000B107D9F722E0AAE7B1E001C01D92AE3343
:1000C000B207E1F710E0C9E4D0E004C02197FE01D7
:1000D0000E94F10FC834D107C9F70E94B5030C94F0
:1000E000F70F0C9400003FB7F89480919D01909118
:1000F0009E01A0919F01B091A00126B5A89B05C0CB
:100100002F3F19F00196A11DB11D3FBFBA2FA92F96
:10011000982F8827BC01CD01620F711D811D911D93
:1001200042E0660F771F881F991F4A95D1F70895FF
:10013000AF92BF92CF92DF92EF92FF920F931F93F5
:10014000CF93DF936C017B018B01040F151FEB0133
:100150005E01AE18BF08C017D10759F06991D601EA
:10016000ED91FC910190F081E02DC6010995892B5C
:1001700079F7C501DF91CF911F910F91FF90EF901B
:10018000DF90CF90BF90AF900895FC01538D448DC8
:10019000252F30E0842F90E0821B930B541710F032
:1001A000CF96089501970895FC01918D828D98173F
:1001B00061F0A28DAE0FBF2FB11D5D968C91928D17
:1001C0009F5F9F73928F90E008958FEF9FEF089548
:1001D000FC01918D828D981731F0828DE80FF11D11
:1001E000858D90E008958FEF9FEF0895FC01918D2C
:1001F000228D892F90E0805C9F4F821B91098F7325
:100200009927089581EA91E00E94F60021E0892B68
:1002100009F420E0822F089580E090E0892B29F0F6
:100220000E94020181110C9400000895FC01A48D2C
:10023000A80FB92FB11DA35ABF4F2C91848D90E008
:1002400001968F739927848FA689B7892C93A089EB
:10025000B1898C91837080648C93938D848D981375
:1002600006C00288F389E02D80818F7D8083089508
:10027000EF92FF920F931F93CF93DF93EC0181E0F6
:10028000888F9B8D8C8D98131AC0E889F98980819D
:1002900085FF15C09FB7F894EE89FF896083E889D0
:1002A000F98980818370806480839FBF81E090E0C2
:1002B000DF91CF911F910F91FF90EF900895F62E4F
:1002C0000B8D10E00F5F1F4F0F731127E02E8C8DE9
:1002D0008E110CC00FB607FCFACFE889F98980812E
:1002E00085FFF5CFCE010E941601F1CFEB8DEC0F0B
:1002F000FD2FF11DE35AFF4FF0829FB7F8940B8F4B
:10030000EA89FB8980818062CFCF682F81EA91E002
:100310000C943801CF93DF93EC01888D8823B9F0DA
:10032000AA89BB89E889F9898C9185FD03C0808100
:1003300086FD0DC00FB607FCF7CF8C9185FFF2CF7D
:10034000808185FFEDCFCE010E941601E9CFDF91BC
:10035000CF910895FC0101900020E9F73197AF019A
:10036000481B590BBC0181EA91E00C9498008F92D4
:100370009F92AF92BF920F931F93CF93DF93CDB70E
:10038000DEB7A1970FB6F894DEBF0FBECDBF19A29E
:10039000423008F44AE08E010F5D1F4F842E912CED
:1003A000B12CA12CA50194010E949F0CE62FB9014C
:1003B000CA01EA30F4F4E05DD801EE938D01232BFD
:1003C000242B252B79F790E080E0109719F0CD01D0
:1003D0000E94AA01A1960FB6F894DEBF0FBECDBF52
:1003E000DF91CF911F910F91BF90AF909F908F9011
:1003F0000895E95CE1CFCF92DF92EF92FF92CF9325
:10040000DF936C01990FEE08FF08F7FE17C08DE22D
:100410000E948501EC0166277727CB016C197D09C5
:100420008E099F094AE00E94B7018C0F9D1FDF9142
:10043000CF91FF90EF90DF90CF9008954AE0C701F1
:10044000B601DF91CF91FF90EF90DF90CF900C94A9
:10045000B7014F925F926F927F928F929F92AF926D
:10046000BF92CF92DF92EF92FF92CF936B017C010C
:10047000842EAC019B010E94DE0F882389F082E369
:1004800091E0CF91FF90EF90DF90CF90BF90AF9031
:100490009F908F907F906F905F904F900C94AA01E7
:1004A00026013701E89477F82FEF3FEF4FE75FE73A
:1004B000C301B2010E94DE0F81110DC02FEF3FEF8B
:1004C0004FE75FE7C301B2010E943D0D18161CF40F
:1004D00086E391E0D6CF2FEF3FEF4FE75FE4C70110
:1004E000B6010E94F60E18161CF48AE391E0C9CFFB
:1004F0002FEF3FEF4FE75FECC701B6010E943D0DC4
:1005000087FDF3CF20E030E0A901C701B6010E94CA
:100510003D0DB12CA12C87FF08C08DE20E94850102
:100520005C01F7FAF094F7F8F094C82D60E070E001
:1005300080E09FE3912C20E030E040E251E40E9413
:10054000420D93949814B8F3A70196010E94D10C20
:100550002B013C010E94EE0D6B017C010E941D0EDF
:100560009B01AC01C301B2010E94D00C2B013C01E4
:100570004AE0C701B6010E94B7017C018EE20E94E9
:100580008501E80EF91EEA0CFB1CC15018F120E0B1
:1005900030E040E251E4C301B2010E94710F2B012F
:1005A0003C010E94EE0D4B01B12CA12C4AE0C5018B
:1005B000B4010E94B701E80EF91EC501B4010E9402
:1005C0001D0E9B01AC01C301B2010E94D00C2B0196
:1005D0003C01DBCFC701CF91FF90EF90DF90CF9030
:1005E000BF90AF909F908F907F906F905F904F9053
:1005F0000895CF92DF92EF92FF926B017C01C114BC
:10060000D104E104F10441F00E94150CA701960108
:100610000E946D0C6B017C01C701B601FF90EF9049
:10062000DF90CF9008951F920F920FB60F92112472
:100630002F933F938F939F93AF93BF938091990193
:1006400090919A01A0919B01B0919C0130919801E9
:1006500023E0230F2D3758F50196A11DB11D2093DE
:1006600098018093990190939A01A0939B01B09374
:100670009C0180919D0190919E01A0919F01B0915C
:10068000A0010196A11DB11D80939D0190939E0133
:10069000A0939F01B093A001BF91AF919F918F91C3
:1006A0003F912F910F900FBE0F901F90189526E845
:1006B000230F0296A11DB11DD2CF1F920F920FB62C
:1006C0000F9211242F933F934F935F936F937F93D8
:1006D0008F939F93AF93BF93EF93FF9381EA91E042
:1006E0000E941601FF91EF91BF91AF919F918F9161
:1006F0007F916F915F914F913F912F910F900FBE1E
:100700000F901F9018951F920F920FB60F92112401
:100710002F938F939F93EF93FF93E091B101F0910B
:10072000B2018081E091B701F091B80182FD1BC058
:1007300090818091BA018F5F8F732091BB018217E6
:1007400041F0E091BA01F0E0EF55FE4F958F8093B4
:10075000BA01FF91EF919F918F912F910F900FBE52
:100760000F901F9018958081F4CF789484B58260A3
:1007700084BD84B5816084BD85B5826085BD85B545
:10078000816085BD80916E00816080936E001092C3
:10079000810080918100826080938100809181003E
:1007A00081608093810080918000816080938000CF
:1007B0008091B10084608093B1008091B00081602D
:1007C0008093B00080917A00846080937A00809159
:1007D0007A00826080937A0080917A0081608093B1
:1007E0007A0080917A00806880937A001092C1002C
:1007F00080E480937C0080917A00806480937A000A
:1008000080917A0086FDFCCF60917800709179002C
:10081000072E000C880B990B611571058105910558
:1008200011F00E94640CE091B101F091B20182E0FC
:100830008083E091AD01F091AE011082E091AF01B3
:10084000F091B00180E180831092B901E091B5018F
:10085000F091B60186E08083E091B301F091B4019C
:10086000808180618083E091B301F091B401808147
:1008700088608083E091B301F091B4018081806849
:100880008083E091B301F091B40180818F7D8083FA
:1008900092E6292E91E0392E27E5822E21E0922E34
:1008A000C0E5D1E009E411E03EE3A32E31E0B32E30
:1008B000C0909401D0909501E0909601F09097013E
:1008C00020E030E040E450E4C701B6010E943D0D55
:1008D00087FF8BC365E170E080E090E00E94F90241
:1008E0006A507109810991090E941F0E2DEC3CECA0
:1008F0004CEC5DE30E94710F20E030E040E05FE3EC
:100900000E94D10C609318017093190180931A0111
:1009100090931B016BE070E080E090E00E94F90290
:1009200065507109810991090E941F0E2DEC3CEC64
:100930004CE45DE30E94710F20E030E54DE754E4A4
:100940000E94D10C609314017093150180931601DD
:100950009093170165E170E080E090E00E94F90259
:100960006A507109810991090E941F0E2DEC3CEC1F
:100970004CE45DE30E94710F20E030E048EC51E46C
:100980000E94D10C609310017093110180931201A9
:100990009093130110929001109291011092920184
:1009A00010929301B0920F01A0920E0126EA3BE94A
:1009B00044E45BE36091940170919501809196010C
:1009C000909197010E94710F9B01AC0166E676E65B
:1009D00086E091E40E94D00C6B017C0165E170E03F
:1009E00080E090E00E94F9026A5071098109910942
:1009F0000E941F0E2FE632E143E85AE30E94710F76
:100A0000A70196010E94D10C20E030E040EC50E4B8
:100A10000E943D0D87FD77C626EA3BE944E45BE38F
:100A20006091940170919501809196019091970148
:100A30000E94710F9B01AC0166E676E686E091E4C8
:100A40000E94D00C6B017C0165E170E080E090E0D9
:100A50000E94F9026A507109810991090E941F0ED2
:100A60002FE632E143E85AE30E94710FA701960195
:100A70000E94D10C60930A0170930B0180930C01CA
:100A800090930D0165E170E080E090E00E94F90232
:100A90006A507109810991090E941F0E2CEA35ECF8
:100AA00047E257E30E94710F9B01AC016091060180
:100AB0007091070180910801909109010E94D10C69
:100AC00060930601709307018093080190930901D8
:100AD00065E170E080E090E00E94F9026A507109DF
:100AE000810991090E941F0E2CEA35EC47E257E379
:100AF0000E94710F9B01AC01609102017091030192
:100B000080910401909105010E94D10C6093020133
:100B10007093030180930401909305018091180163
:100B200090911901A0911A01B0911B0180938A0143
:100B300090938B01A0938C01B0938D0165E070E0E0
:100B400080E090E00E94F902685F7F4F709301019E
:100B50006093000165E170E080E090E00E94F9029E
:100B60006A507109810991090E941F0E2DEC3CEC1D
:100B70004CE45EE30E94710F209186013091870161
:100B800040918801509189010E94D10C20E030E011
:100B900044E352EC0E943D0D87FDBAC565E170E06B
:100BA00080E090E00E94F9026A5071098109910980
:100BB0000E941F0E2DEC3CEC4CE45EE30E94710F92
:100BC00020918601309187014091880150918901DF
:100BD0000E94D10C20E030E044E352E40E94F60E83
:100BE00018160CF49AC565E170E080E090E00E9470
:100BF000F9026A507109810991090E941F0E2DECBA
:100C00003CEC4CE45EE30E94710F20918601309130
:100C1000870140918801509189010E94D10C609315
:100C2000860170938701809388019093890165E123
:100C300070E080E090E00E94F9026A507109810939
:100C400091090E941F0E2DEC3CEC4CE45EE30E94E7
:100C5000710F209182013091830140918401509164
:100C600085010E94D10C20E030E044E352EC0E9468
:100C70003D0D87FD57C565E170E080E090E00E9482
:100C8000F9026A507109810991090E941F0E2DEC29
:100C90003CEC4CE45EE30E94710F209182013091A4
:100CA000830140918401509185010E94D10C20E084
:100CB00030E044E352E40E94F60E18160CF437C5F7
:100CC00065E170E080E090E00E94F9026A507109ED
:100CD000810991090E941F0E2DEC3CEC4CE45EE36F
:100CE0000E94710F20918201309183014091840113
:100CF000509185010E94D10C609382017093830111
:100D000080938401909385016DE271E080E090E032
:100D10000E94F90266597109810991090E941F0E0A
:100D20002DEC3CEC4CEC5DE30E94710F60937E0176
:100D300070937F01809380019093810182EE9BE00C
:100D40000E94FB018CE20E948501609194017091E8
:100D50009501809196019091970141E050E00E94A9
:100D600029028CE20E94850160917A0170917B01D9
:100D700080917C0190917D014AE00E94B7018CE254
:100D80000E9485018AE691E00E94AA018CE20E94FD
:100D9000850180910E0190910F01009711F00E9442
:100DA000AA018CE20E9485016091180170911901DD
:100DB00080911A0190911B0142E050E00E942902AB
:100DC0008CE20E948501609114017091150180915F
:100DD00016019091170142E050E00E9429028CE236
:100DE0000E948501609110017091110180911201A2
:100DF0009091130142E050E00E9429028CE20E948F
:100E0000850160910A0170910B0180910C01909114
:100E10000D0142E050E00E9429028CE20E9485010F
:100E2000609106017091070180910801909109017C
:100E300046E050E00E9429028CE20E948501609108
:100E4000020170910301809104019091050146E037
:100E500050E00E9429028CE20E94850160918A0183
:100E600070918B0180918C0190918D0142E050E056
:100E70000E9429028CE20E948501809100019091DC
:100E800001010E94FB018CE20E94850160918601B4
:100E900070918701809188019091890142E050E032
:100EA0000E9429028CE20E9485016091820170916A
:100EB0008301809184019091850142E050E00E947D
:100EC00029028CE20E94850160917E0170917F0170
:100ED000809180019091810142E050E00E942902BE
:100EE0008CE20E9485016091900170919101809146
:100EF00092019091930142E050E00E9429028CE21D
:100F00000E94850180918F0190E00E94FB018CE29C
:100F10000E94850180918E0190E00E94FB018CE28D
:100F20000E94850181E791E00E94AA0186E791E095
:100F30000E94AA0120E030E040E85FE36091940164
:100F40007091950180919601909197010E94D10C2A
:100F5000609394017093950180939601909397010B
:100F600080917A0190917B01A0917C01B0917D01EB
:100F70000196A11DB11D80937A0190937B01A093EE
:100F80007C01B0937D010E9473002B013C0188EE2F
:100F9000C82E83E0D82EE12CF12C0E947300641936
:100FA000750986099709683E734081059105A8F384
:100FB00091E0C91AD108E108F10828EE420E23E0B9
:100FC000521E611C711CC114D104E104F10429F703
:100FD00080E090E0892B09F46BCC0E940201882309
:100FE00009F466CC0E94000063CC20E030E040EAC7
:100FF00051E4C701B6010E943D0D87FFF2C020E019
:1010000030E040E051E46091180170911901809145
:101010001A0190911B010E94D10C6B017C016BE0C5
:1010200070E080E090E00E94F9026550710981094A
:1010300091090E941F0E2DEC3CEC4CE45EE30E94F3
:10104000710FA70196010E94D10C20E030E04FE221
:1010500054E40E94F60E18160CF4BEC020E030E0F6
:1010600040E051E4609118017091190180911A01DA
:1010700090911B010E94D10C6B017C016BE070E030
:1010800080E090E00E94F9026550710981099109A0
:101090000E941F0E2DEC3CEC4CE45EE30E94710FAD
:1010A000A70196010E94D10C609318017093190159
:1010B00080931A0190931B01905820E030ED44E09A
:1010C00056E40E94420D0E94BC0D2B013C016BE0D6
:1010D00070E080E090E00E94F9026550710981099A
:1010E00091090E941F0E2DEC3CEC4CE45DE30E9444
:1010F000710F6B017C0120E030E54DE754E4C30142
:10110000B2010E94710F9B01AC01C701B6010E94A0
:10111000D10C609314017093150180931601909384
:10112000170124EF3DEF44ED5BE3609118017091EE
:10113000190180911A0190911B010E94710F9B016E
:10114000AC0160E070E088EC91E40E94D00C6B018F
:101150007C0165E170E080E090E00E94F9026A5055
:101160007109810991090E941F0E2AE037ED43EAB7
:101170005CE30E94710FA70196010E94D10C60935D
:10118000100170931101809312019093130165E196
:1011900070E080E090E00E94F9026A5071098109D4
:1011A00091090E941F0E2DEC3CEC4CEC5DE30E947B
:1011B000710F20E030E040E151E40E94D00C6093D8
:1011C00090017093910180939201909393011093F9
:1011D0000F0100930E01EACB60E070E08FE294E42F
:1011E00063CF20E030E040E252E4C701B6010E9444
:1011F0003D0D87FF98C069E270E080E090E00E94BA
:10120000F90264517109810991090E941F0E2DECA8
:101210003CEC4CE45EE30E94710F20E030E04FE2D2
:1012200054E40E94D10C60931801709319018093CB
:101230001A0190931B01905820E030ED44E056E4F1
:101240000E94420D0E94BC0D2B013C016BE070E03E
:1012500080E090E00E94F9026550710981099109CE
:101260000E941F0E2DEC3CEC4CE45DE30E94710FDC
:101270006B017C0120E030E54DE754E4C301B2018D
:101280000E94710F9B01AC01C701B6010E94D10CF5
:1012900060931401709315018093160190931701C8
:1012A00024EF3DEF44ED5BE360911801709119016B
:1012B00080911A0190911B010E94710F9B01AC015A
:1012C00060E070E088EC91E40E94D00C6B017C013E
:1012D00065E170E080E090E00E94F9026A507109D7
:1012E000810991090E941F0E2AE037ED43EA5CE371
:1012F0000E94710FA70196010E94D10C609310010A
:101300007093110180931201909313011092900138
:10131000109291011092920110929301D0930F01BB
:10132000C0930E0143CB409018015090190160907A
:101330001A0170901B0120E030E040E752E4C70141
:10134000B6010E943D0D87FFF0C065E170E080E0CE
:1013500090E00E94F9026A507109810991090E9486
:101360001F0E2DEC3CEC4CE45EE30E94710F6B0110
:101370007C0120E030E040E450E4C301B2010E946F
:10138000D00C9B01AC01C701B6010E94D10C20E03A
:1013900030E842E254E40E943D0D87FDC1C020E0E8
:1013A00030E040E450E4609118017091190180919F
:1013B0001A0190911B010E94D00C6B017C0165E128
:1013C00070E080E090E00E94F9026A5071098109A2
:1013D00091090E941F0E2DEC3CEC4CE45EE30E9450
:1013E000710FA70196010E94D10C609318017093B0
:1013F000190180931A0190931B01905820E030ED61
:1014000044E056E40E94420D0E94BC0D2B013C01B9
:101410006BE070E080E090E00E94F9026550710995
:10142000810991090E941F0E2DEC3CEC4CE45DE318
:101430000E94710F6B017C0120E030E54DE754E420
:10144000C301B2010E94710F9B01AC01C701B6013B
:101450000E94D10C609314017093150180931601C2
:101460009093170124EF3DEF44ED5BE36091180189
:101470007091190180911A0190911B010E94710FC6
:101480009B01AC0160E070E088EC91E40E94D00C1C
:101490006B017C0165E170E080E090E00E94F90260
:1014A0006A507109810991090E941F0E2AE037EDE7
:1014B00043EA5CE30E94710FA70196010E94D10CE0
:1014C00060931001709311018093120190931301A6
:1014D00065E170E080E090E00E94F9026A507109D5
:1014E000810991090E941F0E2DEC3CEC4CEC5DE350
:1014F0000E94710F20E030E040E450E40E94D10CE3
:101500006093900170939101809392019093930165
:1015100021E020938F0190920F0180920E0146CA24
:1015200060E070E882E294E460CF65E170E080E022
:1015300090E00E94F9026A507109810991090E94A4
:101540001F0E2DEC3CEC4CEC5DE30E94710F6B0127
:101550007C0120E030E040E151E4C301B2010E948F
:10156000D00C9B01AC01C701B6010E94D10C20E058
:1015700030E0A9010E943D0D87FDC1C020E030E0B0
:1015800040E151E4609118017091190180911A01B4
:1015900090911B010E94D00C6B017C0165E170E011
:1015A00080E090E00E94F9026A5071098109910976
:1015B0000E941F0E2DEC3CEC4CEC5DE30E94710F81
:1015C000A70196010E94D10C609318017093190134
:1015D00080931A0190931B01905820E030ED44E075
:1015E00056E40E94420D0E94BC0D2B013C016BE0B1
:1015F00070E080E090E00E94F90265507109810975
:1016000091090E941F0E2DEC3CEC4CE45DE30E941E
:10161000710F6B017C0120E030E54DE754E4C3011C
:10162000B2010E94710F9B01AC01C701B6010E947B
:10163000D10C60931401709315018093160190935F
:10164000170124EF3DEF44ED5BE3609118017091C9
:10165000190180911A0190911B010E94710F9B0149
:10166000AC0160E070E088EC91E40E94D00C6B016A
:101670007C0165E170E080E090E00E94F9026A5030
:101680007109810991090E941F0E2AE037ED43EA92
:101690005CE30E94710FA70196010E94D10C609338
:1016A000100170931101809312019093130165E171
:1016B00070E080E090E00E94F9026A5071098109AF
:1016C00091090E941F0E2DEC3CEC4CEC5DE30E9456
:1016D000710F20E030E040E151E40E94D10C6093B2
:1016E000900170939101809392019093930181E016
:1016F00080938E0130920F0120920E0157C960E055
:1017000070E0CB0161CF60E070E080EC90E4B2C9A2
:1017100060E070E084E392EC82CA60E070E084E311
:1017200092E47DCA60E070E084E392ECE5CA60E098
:1017300070E084E392E4E0CAE1EAF1E0138212820D
:1017400088EE93E0A0E0B0E084839583A683B7831E
:1017500084E291E09183808385EC90E09587848793
:1017600084EC90E09787868780EC90E0918B808B6B
:1017700081EC90E0938B828B82EC90E0958B848B54
:1017800086EC90E0978B868B118E128E138E148EC2
:1017900008958F929F92AF92BF92CF92DF92EF9275
:1017A000FF92CF93DF93EC01688179818A819B81DD
:1017B000611571058105910521F464E279ED8BE5F0
:1017C00097E02DE133EF41E050E00E946D0C4901BC
:1017D0005A019B01AC01A7EAB1E40E948C0C6B0199
:1017E0007C01ACEEB4EFA50194010E949A0CC60EE8
:1017F000D71EE81EF91EF7FE06C081E0C81AD10800
:10180000E10880E8F80AC882D982EA82FB82C7012F
:10181000B6019F77DF91CF91FF90EF90DF90CF904F
:10182000BF90AF909F908F9008958F929F92AF92AC
:10183000BF92CF92DF92EF92FF9260911C01709164
:101840001D0180911E0190911F0161157105810597
:10185000910521F464E279ED8BE597E02DE133EF1A
:1018600041E050E00E946D0C49015A019B01AC011E
:10187000A7EAB1E40E948C0C6B017C01ACEEB4EFE2
:10188000A50194010E949A0CC60ED71EE81EF91EEF
:10189000F7FE06C081E0C81AD108E10880E8F80A1E
:1018A000C0921C01D0921D01E0921E01F0921F0116
:1018B000C701B6019F77FF90EF90DF90CF90BF9068
:1018C000AF909F908F90089560931C0170931D01BD
:1018D00080931E0190931F010895052E97FB1EF41F
:1018E00000940E94840C57FD07D00E949F0C07FCB7
:1018F00003D04EF40C94840C50954095309521956E
:101900003F4F4F4F5F4F089590958095709561952B
:101910007F4F8F4F9F4F08950E94C10CA59F900D40
:10192000B49F900DA49F800D911D11240895B7FFC1
:101930000C948C0C0E948C0C821B930B0895A1E2DA
:101940001A2EAA1BBB1BFD010DC0AA1FBB1FEE1F39
:10195000FF1FA217B307E407F50720F0A21BB30B84
:10196000E40BF50B661F771F881F991F1A9469F700
:1019700060957095809590959B01AC01BD01CF015C
:101980000895A29FB001B39FC001A39F700D811D58
:101990001124911DB29F700D811D1124911D089578
:1019A0005058BB27AA270E94E80C0C94BC0E0E943A
:1019B000AE0E38F00E94B50E20F039F49F3F19F4B6
:1019C00026F40C94840E0EF4E095E7FB0C947E0E46
:1019D000E92F0E94CD0E58F3BA17620773078407E8
:1019E000950720F079F4A6F50C94EF0E0EF4E0952F
:1019F0000B2EBA2FA02D0B01B90190010C01CA01C9
:101A0000A0011124FF27591B99F0593F50F4503E73
:101A100068F11A16F040A22F232F342F4427585F65
:101A2000F3CF469537952795A795F0405395C9F77D
:101A30007EF41F16BA0B620B730B840BBAF0915035
:101A4000A1F0FF0FBB1F661F771F881FC2F70EC0D4
:101A5000BA0F621F731F841F48F4879577956795A7
:101A6000B795F7959E3F08F0B0CF9395880F08F093
:101A70009927EE0F9795879508950E945A0E08F4BE
:101A800081E008950E94560D0C94BC0E0E94B50E84
:101A900058F00E94AE0E40F029F45F3F29F00C94FC
:101AA0007E0E51110C94F00E0C94840E0E94CD0EFB
:101AB00068F39923B1F3552391F3951B550BBB277D
:101AC000AA2762177307840738F09F5F5F4F220FC2
:101AD000331F441FAA1FA9F335D00E2E3AF0E0E8B9
:101AE00032D091505040E695001CCAF72BD0FE2F03
:101AF00029D0660F771F881FBB1F26173707480797
:101B0000AB07B0E809F0BB0B802DBF01FF2793584E
:101B10005F4F3AF09E3F510578F00C947E0E0C9486
:101B2000F00E5F3FE4F3983ED4F386957795679582
:101B3000B795F7959F5FC9F7880F911D9695879583
:101B400097F90895E1E0660F771F881FBB1F6217A2
:101B500073078407BA0720F0621B730B840BBA0B60
:101B6000EE1F88F7E095089529F416F00C947E0E88
:101B70000C94EF0E0C94840E0E94D50EA8F39638A8
:101B8000A0F707F80F92E8942BE33AEA48EB5FE7F7
:101B90000E94870F0F920F920F924DB75EB70F9270
:101BA0000E943D0FE8E6F0E00E94870E4F915F91A2
:101BB000EF91FF91E595EE1FFF1F49F0FE57E0689A
:101BC0004427EE0F441FFA95E1F74195550B0E940B
:101BD000070F0F9007FE0C94FB0E08950E94D50E80
:101BE00088F09F5798F0B92F9927B751B0F0E1F0DE
:101BF000660F771F881F991F1AF0BA95C9F714C08E
:101C0000B13091F00E94EF0EB1E008950C94EF0E08
:101C1000672F782F8827B85F39F0B93FCCF38695C6
:101C200077956795B395D9F73EF490958095709523
:101C300061957F4F8F4F9F4F0895E89409C097FBA0
:101C40003EF490958095709561957F4F8F4F9F4F93
:101C50009923A9F0F92F96E9BB279395F6958795D7
:101C600077956795B795F111F8CFFAF4BB0F11F49A
:101C700060FF1BC06F5F7F4F8F4F9F4F16C0882341
:101C800011F096E911C0772321F09EE8872F762F77
:101C900005C0662371F096E8862F70E060E02AF0B8
:101CA0009A95660F771F881FDAF7880F96958795A4
:101CB00097F90895990F0008550FAA0BE0E8FEEF79
:101CC00016161706E807F907C0F012161306E40700
:101CD000F50798F0621B730B840B950B39F40A26F9
:101CE00061F0232B242B252B21F408950A2609F4D7
:101CF000A140A6958FEF811D811D089597F99F67DB
:101D000080E870E060E008959FEF80EC0895DF9335
:101D1000CF931F930F93FF92EF92DF927B018C0181
:101D2000689406C0DA2EEF010E94840FFE01E89449
:101D3000A5912591359145915591A6F3EF010E940A
:101D4000E80CFE019701A801DA9469F7DF90EF90A3
:101D5000FF900F911F91CF91DF91089500240A9475
:101D60001616170618060906089500240A94121676
:101D70001306140605060895092E0394000C11F4A9
:101D8000882352F0BB0F40F4BF2B11F460FF04C056
:101D90006F5F7F4F8F4F9F4F089557FD9058440FAF
:101DA000551F59F05F3F71F04795880F97FB991FBA
:101DB00061F09F3F79F08795089512161306140677
:101DC000551FF2CF4695F1DF08C016161706180604
:101DD000991FF1CF86957105610508940895E894DF
:101DE000BB2766277727CB0197F908950E945A0EE3
:101DF00008F48FEF08959B01AC0160E070E080E88B
:101E00009FE30C94420D0C947E0E0C94E30F0E9401
:101E1000D50ED8F39923C9F3940F511DA3F3915014
:101E2000504094F059F0882332F0660F771F881FD6
:101E300091505040C1F79E3F51052CF7880F911DDE
:101E40009695879597F908955F3FACF0983E9CF082
:101E5000BB27869577956795B79508F4B1609395FC
:101E6000C1F7BB0F58F711F460FFE8CF6F5F7F4FEA
:101E70008F4F9F4FE3CF0C94F00EFA01DC01AA0FB5
:101E8000BB1F9B01AC01BF5728F4222733274427EF
:101E9000507820C0B75190F4AB2F00244695379569
:101EA0002795011CA395D2F3002071F0220F331F58
:101EB000441FB395DAF30ED00C94D00C6130710549
:101EC000A0E88A07B94630F49B01AC016627772762
:101ED00088279078309621F0208331834283538382
:101EE00008950E94840F0C94BC0E0E94AE0E38F030
:101EF0000E94B50E20F0952311F00C947E0E0C94E8
:101F0000840E11240C94F00E0E94CD0E70F3959F58
:101F1000C1F3950F50E0551F629FF001729FBB27E0
:101F2000F00DB11D639FAA27F00DB11DAA1F649F7C
:101F30006627B00DA11D661F829F2227B00DA11D2F
:101F4000621F739FB00DA11D621F839FA00D611DB5
:101F5000221F749F3327A00D611D231F849F600DD6
:101F6000211D822F762F6A2F11249F5750409AF0FF
:101F7000F1F088234AF0EE0FFF1FBB1F661F771F8B
:101F8000881F91505040A9F79E3F510580F00C9456
:101F90007E0E0C94F00E5F3FE4F3983ED4F38695EA
:101FA00077956795B795F795E7959F5FC1F7FE2BF6
:101FB000880F911D9695879597F908950E945A0E5E
:101FC000880B990B08959F3F31F0915020F487952D
:101FD00077956795B795880F911D9695879597F991
:101FE0000895EE0FFF1F0590F491E02D0994F894E9
:021FF000FFCF21
:101FF2000C00026B9A4244E9E441666606413E01E6
:102002000000C84100507D440000C84201000000A9
:102012000000000038019800C5008A01F600D400D3
:10202200E8006E616E00696E66006F76660050525F
:10203200452D4C41554E434800415343454E5400B3
:1020420041504F4745450053455041524154494F35
:102052004E0044455343454E5400464C494748546C
:0A206200004E4F4E45000D0A00002D
:00000001FF
